000001CSPVSW051526.002900409363020260515000342+0000000054231942.01
000002D4BRZCO      2026-05-15 000000000191737.39 
000003DAAPLCO      2026-05-15 000000001139907.26 
000004DAESANDES    2026-05-15 000000000000339.19 
000005DAFPCAPITAL  2026-05-15 000000000001036.42 
000006DAGROCHAL    2026-05-15m000000000000789.34B
000007DAGUAS-A     2026-05-15 000000000001356.77 
000008DAGUASACO    2026-05-15 000000000001356.77 
000009DAIHC1       2026-05-15 000000000001072.91 
000010DALICORC1    2026-05-15 000000000012332.95 
000011DALMENDRAL   2026-05-15 000000000000107.70 
000012DAMDVASCCO   2026-05-15 000000000038006.24 
000013DAMZNCO      2026-05-15 000000001002881.47 
000014DANDINA-A    2026-05-15 000000000014345.34 
000015DANDINA-B    2026-05-15 000000000017504.02 
000016DANDINABCO   2026-05-15 000000000017504.02 
000017DANTARCHILE  2026-05-15 000000000031818.78 
000018DAQUACHILE   2026-05-15 000000000001955.63 
000019DARKFCO      2026-05-15 000000000154528.95 
000020DARKGCO      2026-05-15 000000000106879.36 
000021DARKICO      2026-05-15 000000000040891.32 
000022DARKKCO      2026-05-15 000000000284378.82 
000023DARKQCO      2026-05-15 000000000501440.73 
000024DARKWCO      2026-05-15 000000000543357.19 
000025DARKXCO      2026-05-15 000000000128483.04 
000026DATACOBC1    2026-05-15 000000000000359.48 
000027DAUSTRAC1    2026-05-15 000000000001880.36 
000028DAXXION      2026-05-15 000000000000009.21 
000029DAZUL AZUL   2026-05-15 000000000002177.41 
000030DBACCO       2026-05-15 000000000188965.74 
000031DBACKUAC1    2026-05-15 000000000237810.32 
000032DBACKUSI1    2026-05-15 000000000025948.98 
000033DBANVIDA     2026-05-15 000000000003082.05 
000034DBAP         2026-05-15 000000001211172.82 
000035DBBVAC1      2026-05-15 000000000001968.85 
000036DBBVACOL     2026-05-15B000000000000246.99B
000037DBCI         2026-05-15 000000000247874.44 
000038DBCICO       2026-05-15 000000000247874.44 
000039DBESALCO     2026-05-15 000000000005198.44 
000040DBHI         2026-05-15M000000000000408.00A
000041DBLUMAR      2026-05-15 000000000001269.21 
000042DBMC         2026-05-15B000000000005375.32B
000043DBOGOTA      2026-05-15M000000000036620.00A
000044DBRKBCO      2026-05-15 000000001832705.71 
000045DBROCALC1    2026-05-15 000000000022121.89 
000046DBROCALI1    2026-05-15 000000000014611.51 
000047DBSANTANDCO  2026-05-15 000000000000288.90 
000048DBSANTANDER  2026-05-15 000000000000288.90 
000049DBUENAVC1    2026-05-15 000000000131846.47 
000050DBVC         2026-05-15M000000000015100.00A
000051DBVLAC1      2026-05-15 000000000002588.26 
000052DCALICHERAA  2026-05-15 000000000004288.06 
000053DCAMANCHACA  2026-05-15 000000000000360.13 
000054DCAP         2026-05-15 000000000027669.33 
000055DCAPCO       2026-05-15 000000000027669.33 
000056DCARACOLTV   2026-05-15m000000000004387.67B
000057DCARTAVC1    2026-05-15 000000000037065.23 
000058DCASAGRC1    2026-05-15 000000000009954.85 
000059DCBU0CO      2026-05-15 000000000578933.01 
000060DCBU7CO      2026-05-15 000000000539674.31 
000061DCCO         2026-05-15 000000000468598.59 
000062DCCU         2026-05-15 000000000021660.59 
000063DCCUCO       2026-05-15 000000000021660.59 
000064DCELSIA      2026-05-15A000000000004935.00A
000065DCEMACO      2026-05-15 000000001105508.43 
000066DCEMARGOS    2026-05-15A000000000010960.00A
000067DCEMENTOS    2026-05-15 000000000007244.48 
000068DCENCOMALCO  2026-05-15 000000000009672.02 
000069DCENCOSUD    2026-05-15 000000000008626.38 
000070DCENCOSUDCO  2026-05-15 000000000008626.38 
000071DCEUUCO      2026-05-15 000000000044270.45 
000072DCFMITNIPCO  2026-05-15 000000000020274.51 
000073DCGE         2026-05-15 000000000000998.82 
000074DCHILE       2026-05-15 000000000000685.50 
000075DCHILECO     2026-05-15 000000000000685.50 
000076DCIBEST      2026-05-15A000000000073000.00A
000077DCIBRCO      2026-05-15 000000000183669.23 
000078DCINTAC      2026-05-15 000000000000259.63 
000079DCMPC        2026-05-15 000000000004417.88 
000080DCMPCCO      2026-05-15 000000000004417.88 
000081DCNEC        2026-05-15A000000000005000.00A
000082DCOLBUN      2026-05-15 000000000000542.71 
000083DCOLBUNCO    2026-05-15 000000000000542.71 
000084DCOLO COLO   2026-05-15 000000000000670.01 
000085DCOLOMBINA   2026-05-15m000000000001338.15B
000086DCOLOSO      2026-05-15 000000000000159.13 
000087DCOLTEL      2026-05-15m000000000000700.25A
000088DCONCHATOCO  2026-05-15 000000000003537.78 
000089DCONCHATORO  2026-05-15 000000000003537.78 
000090DCONCIVILES  2026-05-15m000000000000711.07B
000091DCONCONCRET  2026-05-15M000000000000414.00A
000092DCOPEC       2026-05-15 000000000025732.58 
000093DCOPECCO     2026-05-15 000000000025732.58 
000094DCOPXCO      2026-05-15 000000000315322.58 
000095DCORAREC1    2026-05-15 000000000002201.13 
000096DCORAREI1    2026-05-15 000000000001349.44 
000097DCORFERIAS   2026-05-15N000000000001499.89B
000098DCORFICOLCF  2026-05-15A000000000014820.00A
000099DCORLINI1    2026-05-15 000000000004291.65 
000100DCPACASC1    2026-05-15 000000000007886.45 
000101DCREDIFAMI   2026-05-15m000000000003859.10B
000102DCRISTALES   2026-05-15 000000000009757.02 
000103DCSACOL      2026-05-15m000000000031210.37B
000104DCSPXCO      2026-05-15 000000003034120.80 
000105DCUPRUM      2026-05-15 000000000000563.56 
000106DCVERDEC1    2026-05-15 000000000215657.10 
000107DD26ACO      2026-05-15 000000000437616.86 
000108DD28ACO      2026-05-15 000000000442362.84 
000109DDESCAUCANO  2026-05-15m000000000005468.66B
000110DDPYACO      2026-05-15 000000000024348.75 
000111DECL         2026-05-15 000000000007328.24 
000112DECLCO       2026-05-15 000000000007328.24 
000113DECOPETROL   2026-05-15A000000000002480.00A
000114DEDELPA      2026-05-15 000000000000125.63 
000115DEIMICO      2026-05-15 000000000202558.21 
000116DEISA        2026-05-15 000000000002169.16 
000117DELCONDOR    2026-05-15B000000000000480.00A
000118DELECMETAL   2026-05-15 000000000067005.20 
000119DELECTULUA   2026-05-15m000000000597659.04B
000120DEMBONOR-B   2026-05-15 000000000006930.42 
000121DEMCACO      2026-05-15 000000000025643.45 
000122DEMGACO      2026-05-15 000000000021189.83 
000123DEMPAQUES    2026-05-15m000000000018995.10B
000124DENAEX       2026-05-15 000000000104739.34 
000125DENDISPC1    2026-05-15 000000000004601.35 
000126DENELAM      2026-05-15 000000000000317.21 
000127DENELAMCO    2026-05-15 000000000000317.21 
000128DENELCHIL    2026-05-15 000000000000321.65 
000129DENELCHILCO  2026-05-15 000000000000321.65 
000130DENELDXCH    2026-05-15 000000000001884.40 
000131DENELGXCH    2026-05-15 000000000002141.27 
000132DENGEPEC1    2026-05-15 000000000002532.96 
000133DENGIEC1     2026-05-15 000000000004479.68 
000134DENJOY       2026-05-15 000000000000000.72 
000135DENKA        2026-05-15M000000000000018.10A
000136DENTEL       2026-05-15 000000000015117.10 
000137DENTELCO     2026-05-15 000000000015117.10 
000138DEQACCO      2026-05-15 000000001901427.42 
000139DESTRA       2026-05-15N000000000000125.00B
000140DETB         2026-05-15M000000000000054.50A
000141DEXITO       2026-05-15A000000000004050.00A
000142DFABRICATO   2026-05-15B000000000000004.00B
000143DFALABELLA   2026-05-15 000000000023032.44 
000144DFALABELLCO  2026-05-15 000000000023032.44 
000145DFCO         2026-05-15 000000000050876.85 
000146DFERREYC1    2026-05-15 000000000004114.67 
000147DFGNTOLIMA   2026-05-15m000000000000012.49B
000148DFJANCO      2026-05-15 000000000108217.72 
000149DFJULCO      2026-05-15 000000000106708.50 
000150DFLOACO      2026-05-15 000000000024846.13 
000151DFOCTCO      2026-05-15 000000000108958.09 
000152DFORUS       2026-05-15 000000000008759.13 
000153DFOSFOROS    2026-05-15 000000000001591.23 
000154DFTNQF       2026-05-15 000000000257339.67 
000155DFTSRF       2026-05-15 000000000093124.76 
000156DGASCO       2026-05-15 000000000006292.65 
000157DGASNATURAL  2026-05-15N000000000131687.79B
000158DGASORIENTE  2026-05-15m000000000002230.30B
000159DGDXCO       2026-05-15 000000000331648.73 
000160DGEB         2026-05-15A000000000002950.00A
000161DGECO        2026-05-15 000000001068907.47 
000162DGEHCCO      2026-05-15 000000000230692.35 
000163DGEVCO       2026-05-15 000000003983695.48 
000164DGNOVCO      2026-05-15 000000000138164.82 
000165DGOAUCO      2026-05-15 000000000160867.67 
000166DGOOGLCO     2026-05-15 000000001506486.37 
000167DGRUBOLIVAR  2026-05-15M000000000075640.00A
000168DGRUPOARGOS  2026-05-15A000000000014800.00A
000169DGRUPOAVAL   2026-05-15M000000000000780.00A
000170DGRUPOSURA   2026-05-15A000000000048200.00A
000171DGXTESCOL    2026-05-15 000000000052578.79A
000172DHABITAT     2026-05-15 000000000005736.96 
000173DHCOLSEL     2026-05-15 000000000023640.00A
000174DHF          2026-05-15 000000000005491.99 
000175DHITES       2026-05-15 000000000000553.30 
000176DHIVECO      2026-05-15 000000000010213.34 
000177DI500CO      2026-05-15 000000000047148.41 
000178DIAM         2026-05-15 000000000003756.50 
000179DIAMCO       2026-05-15 000000000003756.50 
000180DIANSA       2026-05-15 000000000000139.11 
000181DIAUPCO      2026-05-15 000000000153124.14 
000182DIB01CO      2026-05-15 000000000457132.31 
000183DIBITCO      2026-05-15 000000000170171.68 
000184DIBTACO      2026-05-15 000000000022507.31 
000185DICHNCO      2026-05-15 000000000022089.67 
000186DICOLCAP     2026-05-15 000000000020889.72A
000187DID27CO      2026-05-15 000000000442173.00 
000188DID29CO      2026-05-15 000000000427973.04 
000189DID30CO      2026-05-15 000000000428884.27 
000190DIDSECO      2026-05-15 000000000549925.62 
000191DIDTPCO      2026-05-15 000000000976911.49 
000192DIFS         2026-05-15 000000000170855.10 
000193DIHYACO      2026-05-15 000000000028145.53 
000194DIJPACO      2026-05-15 000000000297971.29 
000195DILC         2026-05-15 000000000086724.44 
000196DINCASTILLA  2026-05-15m000000000060154.79B
000197DINDISA      2026-05-15 000000000011369.23 
000198DINESA       2026-05-15m000000000000674.75B
000199DINRACO      2026-05-15 000000000121524.30 
000200DINRETC1     2026-05-15 000000000113903.40 
000201DINVENSA     2026-05-15m000000000000814.93B
000202DINVERCAP    2026-05-15 000000000008139.79 
000203DISA         2026-05-15A000000000028920.00A
000204DISACCO      2026-05-15 000000000450260.14 
000205DITAUCL      2026-05-15 000000000070937.32 
000206DITAUCLCO    2026-05-15 000000000070937.32 
000207DIUESCO      2026-05-15 000000000046966.17 
000208DIUFSCO      2026-05-15 000000000057350.36 
000209DIUHCCO      2026-05-15 000000000044384.36 
000210DIUITCO      2026-05-15 000000000187295.16 
000211DIWVLCO      2026-05-15 000000000283961.18 
000212DJETSCO      2026-05-15 000000000097045.70 
000213DJNJCO       2026-05-15 000000000860767.99 
000214DJPEACO      2026-05-15 000000000024701.85 
000215DJPMCO       2026-05-15 000000001130719.05 
000216DKOCO        2026-05-15 000000000306855.76 
000217DLAS CONDES  2026-05-15 000000000045644.44 
000218DLIPIGAS     2026-05-15 000000000033668.01 
000219DLITCO       2026-05-15 000000000319233.26 
000220DLQDACO      2026-05-15 000000000023714.69 
000221DLTM         2026-05-15 000000000000090.20 
000222DLTMCO       2026-05-15 000000000000090.20 
000223DLUISAI1     2026-05-15 000000000320767.41 
000224DLUSURC1     2026-05-15 000000000013273.13 
000225DMALLPLAZCO  2026-05-15 000000000015075.23 
000226DMARINSA     2026-05-15 000000000000413.44 
000227DMARLY       2026-05-15m000000000014395.03B
000228DMASISA      2026-05-15 000000000000056.53 
000229DMAYAGUEZ    2026-05-15m000000000008922.16B
000230DMETACO      2026-05-15 000000002332096.18 
000231DMINCORI1    2026-05-15 000000000034288.93 
000232DMINERA      2026-05-15 000000000050669.52 
000233DMINEROS     2026-05-15A000000000014500.00A
000234DMINSURI1    2026-05-15 000000000007410.83 
000235DMIRL        2026-05-15 000000000000087.33 
000236DMOLLER      2026-05-15 000000000001492.45 
000237DMOLYMET     2026-05-15 000000000041884.01 
000238DMOROCOI1    2026-05-15 000000000000387.13 
000239DMSFTCO      2026-05-15 000000001601937.42 
000240DMULTIFOODS  2026-05-15 000000000001432.15 
000241DMVOLCO      2026-05-15 000000000279424.02 
000242DNAVARINO    2026-05-15 000000000007021.71 
000243DNAVIERA     2026-05-15 000000000000159.13 
000244DNEXAPEC1    2026-05-15 000000000003650.11 
000245DNKECO       2026-05-15 000000000159009.15 
000246DNORTEGRAN   2026-05-15 000000000000066.92 
000247DNUAMCO      2026-05-15 000000000021043.34 
000248DNUCO        2026-05-15 000000000046282.75 
000249DNUEVAPOLAR  2026-05-15 000000000000041.42 
000250DNUTRESA     2026-05-15M000000000299820.00A
000251DNVDACO      2026-05-15 000000000855490.47 
000252DOCCIDENTE   2026-05-15B000000000018561.24B
000253DORO BLANCO  2026-05-15 000000000000047.03 
000254DPARAUCO     2026-05-15 000000000015334.86 
000255DPARAUCOCO   2026-05-15 000000000015334.86 
000256DPASUR       2026-05-15 000000000022194.09 
000257DPAZ         2026-05-15 000000000003530.12 
000258DPAZRIO      2026-05-15N000000000000004.10B
000259DPBRCO       2026-05-15 000000000075669.83 
000260DPEHUENCHE   2026-05-15 000000000010980.63 
000261DPFAVAL      2026-05-15A000000000000767.00A
000262DPFBBVACOL   2026-05-15m000000000000611.72B
000263DPFCARPAK    2026-05-15N000000000010182.95B
000264DPFCEMARGOS  2026-05-15M000000000013300.00A
000265DPFCIBEST    2026-05-15A000000000059800.00A
000266DPFCORFICOL  2026-05-15M000000000015760.00A
000267DPFDAVIGRP   2026-05-15M000000000022680.00A
000268DPFDAVVNDA   2026-05-15A000000000020480.00A
000269DPFECO       2026-05-15 000000000096172.44 
000270DPFGRUPOARG  2026-05-15A000000000011300.00A
000271DPFGRUPSURA  2026-05-15A000000000040760.00A
000272DPFVILLA051  2026-05-15m000000000004866.78B
000273DPFVILLA053  2026-05-15B000000000002473.69B
000274DPFVILLAS    2026-05-15m000000000007613.68B
000275DPFVILLAS00  2026-05-15m000000000004866.78B
000276DPFVILLAS01  2026-05-15m000000000004866.78B
000277DPFVILLASCA  2026-05-15B000000000006877.46B
000278DPML         2026-05-15 000000000003417.10 
000279DPOLPAICO    2026-05-15 000000000032080.92 
000280DPOMALCC1    2026-05-15 000000000000265.46 
000281DPOPULAR     2026-05-15N000000000000121.36B
000282DPOTASIOS-A  2026-05-15 000000000001684.28 
000283DPROMIGAS    2026-05-15M000000000006200.00A
000284DPROTECCION  2026-05-15N000000000078000.00B
000285DPROVIDA     2026-05-15 000000000021356.57 
000286DPUCOBRE-A   2026-05-15 000000000068257.28 
000287DQUEMCHI     2026-05-15 000000000003266.30 
000288DQUINENCO    2026-05-15 000000000016845.31 
000289DQUINENCOCO  2026-05-15 000000000016845.31 
000290DRBOTCO      2026-05-15 000000000074796.57 
000291DRCNTELEVI   2026-05-15m000000000074015.96B
000292DRELAPAC1    2026-05-15 000000000000162.60 
000293DRIMINTC1    2026-05-15 000000000001139.28 
000294DRIOPAILA    2026-05-15m000000000007318.21B
000295DRIOPAILIND  2026-05-15m000000000012567.83B
000296DRIPLEY      2026-05-15 000000000001465.65 
000297DRIPLEYCO    2026-05-15 000000000001465.65 
000298DSALFACORP   2026-05-15 000000000005355.89 
000299DSALMOCAM    2026-05-15 000000000022005.65 
000300DSANFELIPE   2026-05-15m000000000000748.85B
000301DSANTA RITA  2026-05-15 000000000000628.13 
000302DSCCO        2026-05-15 000000000668271.25 
000303DSCOTIAC1    2026-05-15 000000000018803.61 
000304DSDEPSA      2026-05-15m000000000021800.12B
000305DSDHACO      2026-05-15 000000000027333.02 
000306DSDIACO      2026-05-15 000000000024067.79 
000307DSECURITY    2026-05-15 000000000001398.65 
000308DSGLDCO      2026-05-15 000000001660142.06 
000309DSIDERC1     2026-05-15 000000000002632.50 
000310DSK          2026-05-15 000000000006868.02 
000311DSMHCO       2026-05-15 000000002112300.59 
000312DSMSAAM      2026-05-15 000000000000635.92 
000313DSMU         2026-05-15 000000000000556.53 
000314DSMUCO       2026-05-15 000000000000556.53 
000315DSOCOVESA    2026-05-15 000000000000510.84 
000316DSONDA       2026-05-15 000000000001172.56 
000317DSPMVCO      2026-05-15 000000000421480.55 
000318DSPXSCO      2026-05-15 000000000056496.09 
000319DSQM-B       2026-05-15 000000000320725.48 
000320DSQMBCO      2026-05-15 000000000320725.48 
000321DSUASCO      2026-05-15 000000000075119.29 
000322DSUEEB       2026-05-15 000000000002252.90B
000323DSUISA       2026-05-15 000000000017083.68B
000324DTELEFBC1    2026-05-15 000000000000497.74 
000325DTERPEL      2026-05-15A000000000017320.00A
000326DTITAN       2026-05-15N000000000027800.00B
000327DTRICOT      2026-05-15 000000000002680.04 
000328DTSLACO      2026-05-15 000000001603152.39 
000329DTV          2026-05-15 000000000000607.48 
000330DUBERCO      2026-05-15 000000000285100.21 
000331DUNACEMC1    2026-05-15 000000000001858.24 
000332DURACO       2026-05-15 000000000189573.23 
000333DVALSIMESA   2026-05-15N000000000009571.47B
000334DVAPORES     2026-05-15 000000000000191.79 
000335DVAPORESCO   2026-05-15 000000000000191.79 
000336DVENTANAS    2026-05-15 000000000000711.89 
000337DVILLAS      2026-05-15B000000000001904.20B
000338DVOLCABC1    2026-05-15 000000000000829.57 
000339DVOLCAN      2026-05-15 000000000013013.27 
000340DVOOCO       2026-05-15 000000002579684.20 
000341DVSPT        2026-05-15 000000000000016.75 
000342DWATTS       2026-05-15 000000000003111.36 
000343DZOFRI       2026-05-15 000000000004376.00 