000001CSPVSW051426.002900409363020260514000342+0000000055014746.44
000002D4BRZCO      2026-05-14 000000000197485.65 
000003DAAPLCO      2026-05-14 000000001128635.39 
000004DAESANDES    2026-05-14 000000000000344.06 
000005DAFPCAPITAL  2026-05-14 000000000001051.31 
000006DAGROCHAL    2026-05-14m000000000000789.34B
000007DAGUAS-A     2026-05-14 000000000001342.27 
000008DAGUASACO    2026-05-14 000000000001342.27 
000009DAIHC1       2026-05-14 000000000001075.04 
000010DALICORC1    2026-05-14 000000000012302.02 
000011DALMENDRAL   2026-05-14 000000000000109.25 
000012DAMDVASCCO   2026-05-14 000000000039125.09 
000013DAMZNCO      2026-05-14 000000001011347.53 
000014DANDINA-A    2026-05-14 000000000014551.34 
000015DANDINA-B    2026-05-14 000000000018095.20 
000016DANDINABCO   2026-05-14 000000000018095.20 
000017DANTARCHILE  2026-05-14 000000000032855.10 
000018DAQUACHILE   2026-05-14 000000000001983.72 
000019DARKFCO      2026-05-14 000000000158919.55 
000020DARKGCO      2026-05-14 000000000110437.55 
000021DARKICO      2026-05-14 000000000041953.40 
000022DARKKCO      2026-05-14 000000000295206.60 
000023DARKQCO      2026-05-14 000000000520699.03 
000024DARKWCO      2026-05-14 000000000558810.96 
000025DARKXCO      2026-05-14 000000000132880.82 
000026DATACOBC1    2026-05-14 000000000000369.06 
000027DAUSTRAC1    2026-05-14 000000000001939.51 
000028DAXXION      2026-05-14 000000000000009.34 
000029DAZUL AZUL   2026-05-14 000000000002208.68 
000030DBACCO       2026-05-14 000000000188667.29 
000031DBACKUAC1    2026-05-14 000000000238836.53 
000032DBACKUSI1    2026-05-14 000000000025435.26 
000033DBANVIDA     2026-05-14 000000000003126.31 
000034DBAP         2026-05-14 000000001240284.04 
000035DBBVAC1      2026-05-14 000000000001983.84 
000036DBBVACOL     2026-05-14B000000000000246.99B
000037DBCI         2026-05-14 000000000243193.52 
000038DBCICO       2026-05-14 000000000243193.52 
000039DBESALCO     2026-05-14 000000000005271.39 
000040DBHI         2026-05-14M000000000000402.00A
000041DBLUMAR      2026-05-14 000000000001287.44 
000042DBMC         2026-05-14B000000000005375.32B
000043DBOGOTA      2026-05-14M000000000036780.00A
000044DBRKBCO      2026-05-14 000000001832021.88 
000045DBROCALC1    2026-05-14 000000000022165.80 
000046DBROCALI1    2026-05-14 000000000014640.51 
000047DBSANTANDCO  2026-05-14 000000000000293.52 
000048DBSANTANDER  2026-05-14 000000000000293.52 
000049DBUENAVC1    2026-05-14 000000000132108.18 
000050DBVC         2026-05-14M000000000014760.00A
000051DBVLAC1      2026-05-14 000000000002593.40 
000052DCALICHERAA  2026-05-14 000000000004349.64 
000053DCAMANCHACA  2026-05-14 000000000000365.30 
000054DCAP         2026-05-14 000000000028459.58 
000055DCAPCO       2026-05-14 000000000028459.58 
000056DCARACOLTV   2026-05-14m000000000004387.67B
000057DCARTAVC1    2026-05-14 000000000037138.80 
000058DCASAGRC1    2026-05-14 000000000009597.79 
000059DCBU0CO      2026-05-14 000000000582503.18 
000060DCBU7CO      2026-05-14 000000000540909.32 
000061DCCO         2026-05-14 000000000472406.25 
000062DCCU         2026-05-14 000000000022265.16 
000063DCCUCO       2026-05-14 000000000022265.16 
000064DCELSIA      2026-05-14A000000000005010.00A
000065DCEMACO      2026-05-14 000000001138740.54 
000066DCEMARGOS    2026-05-14A000000000011300.00A
000067DCEMENTOS    2026-05-14 000000000007348.52 
000068DCENCOMALCO  2026-05-14 000000000009918.38 
000069DCENCOSUD    2026-05-14 000000000009026.36 
000070DCENCOSUDCO  2026-05-14 000000000009026.36 
000071DCEUUCO      2026-05-14 000000000044909.25 
000072DCFMITNIPCO  2026-05-14 000000000020771.25 
000073DCGE         2026-05-14 000000000001032.15 
000074DCHILE       2026-05-14 000000000000694.46 
000075DCHILECO     2026-05-14 000000000000694.46 
000076DCIBEST      2026-05-14A000000000073000.00A
000077DCIBRCO      2026-05-14 000000000183822.88 
000078DCINTAC      2026-05-14 000000000000263.36 
000079DCMPC        2026-05-14 000000000004523.80 
000080DCMPCCO      2026-05-14 000000000004523.80 
000081DCNEC        2026-05-14A000000000005000.00A
000082DCOLBUN      2026-05-14 000000000000554.32 
000083DCOLBUNCO    2026-05-14 000000000000554.32 
000084DCOLO COLO   2026-05-14 000000000000679.63 
000085DCOLOMBINA   2026-05-14m000000000001338.15B
000086DCOLOSO      2026-05-14 000000000000161.41 
000087DCOLTEL      2026-05-14m000000000000700.25A
000088DCONCHATOCO  2026-05-14 000000000003525.59 
000089DCONCHATORO  2026-05-14 000000000003525.59 
000090DCONCIVILES  2026-05-14m000000000000711.07B
000091DCONCONCRET  2026-05-14M000000000000430.00A
000092DCOPEC       2026-05-14 000000000026123.35 
000093DCOPECCO     2026-05-14 000000000026123.35 
000094DCOPXCO      2026-05-14 000000000338276.49 
000095DCORAREC1    2026-05-14 000000000002205.50 
000096DCORAREI1    2026-05-14 000000000001364.31 
000097DCORFERIAS   2026-05-14N000000000001499.89B
000098DCORFICOLCF  2026-05-14A000000000015040.00A
000099DCORLINI1    2026-05-14 000000000004300.17 
000100DCPACASC1    2026-05-14 000000000007868.86 
000101DCREDIFAMI   2026-05-14m000000000003859.10B
000102DCRISTALES   2026-05-14 000000000009897.14 
000103DCSACOL      2026-05-14m000000000031210.37B
000104DCSPXCO      2026-05-14 000000003055009.84 
000105DCUPRUM      2026-05-14 000000000000571.66 
000106DCVERDEC1    2026-05-14 000000000213154.30 
000107DD26ACO      2026-05-14 000000000436148.83 
000108DD28ACO      2026-05-14 000000000441636.64 
000109DDESCAUCANO  2026-05-14m000000000005468.66B
000110DDPYACO      2026-05-14 000000000024725.45 
000111DECL         2026-05-14 000000000007357.44 
000112DECLCO       2026-05-14 000000000007357.44 
000113DECOPETROL   2026-05-14A000000000002485.00A
000114DEDELPA      2026-05-14 000000000000127.43 
000115DEIMICO      2026-05-14 000000000208536.97 
000116DEISA        2026-05-14 000000000002208.80 
000117DELCONDOR    2026-05-14B000000000000480.00A
000118DELECMETAL   2026-05-14 000000000067967.44 
000119DELECTULUA   2026-05-14m000000000597659.04B
000120DEMBONOR-B   2026-05-14 000000000007029.94 
000121DEMCACO      2026-05-14 000000000025629.99 
000122DEMGACO      2026-05-14 000000000021489.53 
000123DEMPAQUES    2026-05-14m000000000018995.10B
000124DENAEX       2026-05-14 000000000106243.45 
000125DENDISPC1    2026-05-14 000000000004610.49 
000126DENELAM      2026-05-14 000000000000331.75 
000127DENELAMCO    2026-05-14 000000000000331.75 
000128DENELCHIL    2026-05-14 000000000000339.82 
000129DENELCHILCO  2026-05-14 000000000000339.82 
000130DENELDXCH    2026-05-14 000000000001911.46 
000131DENELGXCH    2026-05-14 000000000002204.05 
000132DENGEPEC1    2026-05-14 000000000002537.98 
000133DENGIEC1     2026-05-14 000000000004510.74 
000134DENJOY       2026-05-14 000000000000000.73 
000135DENKA        2026-05-14M000000000000018.10A
000136DENTEL       2026-05-14 000000000015223.75 
000137DENTELCO     2026-05-14 000000000015223.75 
000138DEQACCO      2026-05-14 000000001890646.89 
000139DESTRA       2026-05-14N000000000000125.00B
000140DETB         2026-05-14M000000000000053.00A
000141DEXITO       2026-05-14A000000000004050.00A
000142DFABRICATO   2026-05-14B000000000000004.00B
000143DFALABELLA   2026-05-14 000000000023113.86 
000144DFALABELLCO  2026-05-14 000000000023113.86 
000145DFCO         2026-05-14 000000000054802.46 
000146DFERREYC1    2026-05-14 000000000004089.59 
000147DFGNTOLIMA   2026-05-14m000000000000012.49B
000148DFJANCO      2026-05-14 000000000108431.65 
000149DFJULCO      2026-05-14 000000000106596.08 
000150DFLOACO      2026-05-14 000000000024767.08 
000151DFOCTCO      2026-05-14 000000000109633.30 
000152DFORUS       2026-05-14 000000000008935.46 
000153DFOSFOROS    2026-05-14 000000000001614.08 
000154DFTNQF       2026-05-14 000000000256520.91 
000155DFTSRF       2026-05-14 000000000092828.47 
000156DGASCO       2026-05-14 000000000006547.40 
000157DGASNATURAL  2026-05-14N000000000131687.79B
000158DGASORIENTE  2026-05-14m000000000002230.30B
000159DGDXCO       2026-05-14 000000000355572.57 
000160DGEB         2026-05-14A000000000002985.00A
000161DGECO        2026-05-14 000000001103391.44 
000162DGEHCCO      2026-05-14 000000000237187.15 
000163DGEVCO       2026-05-14 000000004127328.89 
000164DGNOVCO      2026-05-14 000000000138576.79 
000165DGOAUCO      2026-05-14 000000000172203.85 
000166DGOOGLCO     2026-05-14 000000001517929.63 
000167DGRUBOLIVAR  2026-05-14M000000000077980.00A
000168DGRUPOARGOS  2026-05-14A000000000014700.00A
000169DGRUPOAVAL   2026-05-14M000000000000784.00A
000170DGRUPOSURA   2026-05-14A000000000049500.00A
000171DGXTESCOL    2026-05-14 000000000053250.00A
000172DHABITAT     2026-05-14 000000000005734.82 
000173DHCOLSEL     2026-05-14 000000000023877.50A
000174DHF          2026-05-14 000000000005570.86 
000175DHITES       2026-05-14 000000000000561.25 
000176DHIVECO      2026-05-14 000000000011240.56 
000177DI500CO      2026-05-14 000000000047475.28 
000178DIAM         2026-05-14 000000000003776.67 
000179DIAMCO       2026-05-14 000000000003776.67 
000180DIANSA       2026-05-14 000000000000155.25 
000181DIAUPCO      2026-05-14 000000000163801.82 
000182DIB01CO      2026-05-14 000000000455677.88 
000183DIBITCO      2026-05-14 000000000174739.60 
000184DIBTACO      2026-05-14 000000000022469.76 
000185DICHNCO      2026-05-14 000000000022575.74 
000186DICOLCAP     2026-05-14 000000000021093.95A
000187DID27CO      2026-05-14 000000000440993.24 
000188DID29CO      2026-05-14 000000000428011.72 
000189DID30CO      2026-05-14 000000000429563.45 
000190DIDSECO      2026-05-14 000000000559227.27 
000191DIDTPCO      2026-05-14 000000000979480.36 
000192DIFS         2026-05-14 000000000170311.50 
000193DIHYACO      2026-05-14 000000000028207.37 
000194DIJPACO      2026-05-14 000000000300051.02 
000195DILC         2026-05-14 000000000084953.98 
000196DINCASTILLA  2026-05-14m000000000060154.79B
000197DINDISA      2026-05-14 000000000011532.50 
000198DINESA       2026-05-14m000000000000674.75B
000199DINRACO      2026-05-14 000000000122281.76 
000200DINRETC1     2026-05-14 000000000114297.94 
000201DINVENSA     2026-05-14m000000000000814.93B
000202DINVERCAP    2026-05-14 000000000008379.86 
000203DISA         2026-05-14A000000000028560.00A
000204DISACCO      2026-05-14 000000000455602.19 
000205DITAUCL      2026-05-14 000000000072588.93 
000206DITAUCLCO    2026-05-14 000000000072588.93 
000207DIUESCO      2026-05-14 000000000045794.87 
000208DIUFSCO      2026-05-14 000000000057394.98 
000209DIUHCCO      2026-05-14 000000000044640.54 
000210DIUITCO      2026-05-14 000000000189045.77 
000211DIWVLCO      2026-05-14 000000000289567.40 
000212DJETSCO      2026-05-14 000000000099234.83 
000213DJNJCO       2026-05-14 000000000873508.76 
000214DJPEACO      2026-05-14 000000000024751.94 
000215DJPMCO       2026-05-14 000000001135069.38 
000216DKOCO        2026-05-14 000000000304479.12 
000217DLAS CONDES  2026-05-14 000000000045875.15 
000218DLIPIGAS     2026-05-14 000000000033939.54 
000219DLITCO       2026-05-14 000000000329079.67 
000220DLQDACO      2026-05-14 000000000023896.60 
000221DLTM         2026-05-14 000000000000093.87 
000222DLTMCO       2026-05-14 000000000000093.87 
000223DLUISAI1     2026-05-14 000000000321404.14 
000224DLUSURC1     2026-05-14 000000000013299.48 
000225DMALLPLAZCO  2026-05-14 000000000015913.16 
000226DMARINSA     2026-05-14 000000000000419.38 
000227DMARLY       2026-05-14m000000000014395.03B
000228DMASISA      2026-05-14 000000000000057.43 
000229DMAYAGUEZ    2026-05-14m000000000008922.16B
000230DMETACO      2026-05-14 000000002340572.02 
000231DMINCORI1    2026-05-14 000000000034356.99 
000232DMINERA      2026-05-14 000000000051397.16 
000233DMINEROS     2026-05-14A000000000015020.00A
000234DMINSURI1    2026-05-14 000000000007408.92 
000235DMIRL        2026-05-14 000000000000087.05 
000236DMOLLER      2026-05-14 000000000001513.88 
000237DMOLYMET     2026-05-14 000000000042485.49 
000238DMOROCOI1    2026-05-14 000000000000387.90 
000239DMSFTCO      2026-05-14 000000001549569.72 
000240DMULTIFOODS  2026-05-14 000000000001452.71 
000241DMVOLCO      2026-05-14 000000000279537.94 
000242DNAVARINO    2026-05-14 000000000007122.54 
000243DNAVIERA     2026-05-14 000000000000161.41 
000244DNEXAPEC1    2026-05-14 000000000003690.61 
000245DNKECO       2026-05-14 000000000159033.09 
000246DNORTEGRAN   2026-05-14 000000000000067.88 
000247DNUAMCO      2026-05-14 000000000021345.54 
000248DNUCO        2026-05-14 000000000048936.17 
000249DNUEVAPOLAR  2026-05-14 000000000000042.02 
000250DNUTRESA     2026-05-14M000000000298680.00A
000251DNVDACO      2026-05-14 000000000892205.18 
000252DOCCIDENTE   2026-05-14B000000000018561.24B
000253DORO BLANCO  2026-05-14 000000000000048.85 
000254DPARAUCO     2026-05-14 000000000015758.54 
000255DPARAUCOCO   2026-05-14 000000000015758.54 
000256DPASUR       2026-05-14 000000000022512.81 
000257DPAZ         2026-05-14 000000000003580.81 
000258DPAZRIO      2026-05-14N000000000000004.10B
000259DPBRCO       2026-05-14 000000000074861.37 
000260DPEHUENCHE   2026-05-14 000000000011182.49 
000261DPFAVAL      2026-05-14A000000000000796.00A
000262DPFBBVACOL   2026-05-14m000000000000611.72B
000263DPFCARPAK    2026-05-14N000000000010182.95B
000264DPFCEMARGOS  2026-05-14M000000000013300.00A
000265DPFCIBEST    2026-05-14A000000000060680.00A
000266DPFCORFICOL  2026-05-14M000000000015780.00A
000267DPFDAVIGRP   2026-05-14M000000000022900.00A
000268DPFDAVVNDA   2026-05-14A000000000020440.00A
000269DPFECO       2026-05-14 000000000097456.03 
000270DPFGRUPOARG  2026-05-14A000000000011500.00A
000271DPFGRUPSURA  2026-05-14A000000000041400.00A
000272DPFVILLA051  2026-05-14m000000000004866.78B
000273DPFVILLA053  2026-05-14B000000000002473.69B
000274DPFVILLAS    2026-05-14m000000000007613.68B
000275DPFVILLAS00  2026-05-14m000000000004866.78B
000276DPFVILLAS01  2026-05-14m000000000004866.78B
000277DPFVILLASCA  2026-05-14B000000000006877.46B
000278DPML         2026-05-14 000000000003557.62 
000279DPOLPAICO    2026-05-14 000000000032541.62 
000280DPOMALCC1    2026-05-14 000000000000269.31 
000281DPOPULAR     2026-05-14N000000000000121.36B
000282DPOTASIOS-A  2026-05-14 000000000001734.46 
000283DPROMIGAS    2026-05-14M000000000006300.00A
000284DPROTECCION  2026-05-14N000000000078000.00B
000285DPROVIDA     2026-05-14 000000000021382.49 
000286DPUCOBRE-A   2026-05-14 000000000068557.87 
000287DQUEMCHI     2026-05-14 000000000003313.21 
000288DQUINENCO    2026-05-14 000000000016481.07 
000289DQUINENCOCO  2026-05-14 000000000016481.07 
000290DRBOTCO      2026-05-14 000000000076715.87 
000291DRCNTELEVI   2026-05-14m000000000074015.96B
000292DRELAPAC1    2026-05-14 000000000000162.92 
000293DRIMINTC1    2026-05-14 000000000001219.12 
000294DRIOPAILA    2026-05-14m000000000007318.21B
000295DRIOPAILIND  2026-05-14m000000000012567.83B
000296DRIPLEY      2026-05-14 000000000001522.38 
000297DRIPLEYCO    2026-05-14 000000000001522.38 
000298DSALFACORP   2026-05-14 000000000005442.15 
000299DSALMOCAM    2026-05-14 000000000022321.66 
000300DSANFELIPE   2026-05-14m000000000000748.85B
000301DSANTA RITA  2026-05-14 000000000000637.15 
000302DSCCO        2026-05-14 000000000707738.90 
000303DSCOTIAC1    2026-05-14 000000000018840.93 
000304DSDEPSA      2026-05-14m000000000021800.12B
000305DSDHACO      2026-05-14 000000000027340.67 
000306DSDIACO      2026-05-14 000000000024051.77 
000307DSECURITY    2026-05-14 000000000001418.73 
000308DSGLDCO      2026-05-14 000000001707732.33 
000309DSIDERC1     2026-05-14 000000000002604.48 
000310DSK          2026-05-14 000000000006966.65 
000311DSMHCO       2026-05-14 000000002188843.40 
000312DSMSAAM      2026-05-14 000000000000637.24 
000313DSMU         2026-05-14 000000000000560.70 
000314DSMUCO       2026-05-14 000000000000560.70 
000315DSOCOVESA    2026-05-14 000000000000527.86 
000316DSONDA       2026-05-14 000000000001210.59 
000317DSPMVCO      2026-05-14 000000000422486.06 
000318DSPXSCO      2026-05-14 000000000056902.96 
000319DSQM-B       2026-05-14 000000000332165.83 
000320DSQMBCO      2026-05-14 000000000332165.83 
000321DSUASCO      2026-05-14 000000000076261.70 
000322DSUEEB       2026-05-14 000000000002252.90B
000323DSUISA       2026-05-14 000000000017083.68B
000324DTELEFBC1    2026-05-14 000000000000498.73 
000325DTERPEL      2026-05-14A000000000017660.00A
000326DTITAN       2026-05-14N000000000027800.00B
000327DTRICOT      2026-05-14 000000000002718.53 
000328DTSLACO      2026-05-14 000000001677757.51 
000329DTV          2026-05-14 000000000000605.55 
000330DUBERCO      2026-05-14 000000000282679.24 
000331DUNACEMC1    2026-05-14 000000000001906.26 
000332DURACO       2026-05-14 000000000198696.75 
000333DVALSIMESA   2026-05-14N000000000009571.47B
000334DVAPORES     2026-05-14 000000000000216.85 
000335DVAPORESCO   2026-05-14 000000000000216.85 
000336DVENTANAS    2026-05-14 000000000000722.11 
000337DVILLAS      2026-05-14B000000000001904.20B
000338DVOLCABC1    2026-05-14 000000000000886.63 
000339DVOLCAN      2026-05-14 000000000013200.15 
000340DVOOCO       2026-05-14 000000002602851.73 
000341DVSPT        2026-05-14 000000000000016.99 
000342DWATTS       2026-05-14 000000000003156.04 
000343DZOFRI       2026-05-14 000000000004309.72 